:020000040000FA
:100000000C949C000C94C4000C94C4000C94C40088
:100010000C94C4000C94C4000C94C4000C94C40050
:100020000C94C4000C94C4000C94C4000C94C40040
:100030000C94C4000C94C4000C94C4000C94C40030
:100040000C943E0D0C94C4000C94AE0D0C94880DD1
:100050000C94C4000C94C4000C94C4000C94C40010
:100060000C94C4000C94C400000020410000C8425D
:1000700000401C4620BCBE4CCA1B0E5AAEC59D7427
:10008000CDCCCC3D0AD7233C17B7D13877CC2B3217
:100090009595E6241FB14F0A244765742073746157
:1000A00074757320726563656976656400244765BD
:1000B0007420756C747261736F6E2072656365690C
:1000C0007665640024476574206261747465727992
:1000D0002072656365697665640000000000240095
:1000E00027002A0000000000250028002B00000047
:1000F000000023002600290004040404040404046E
:1001000002020202020203030303030301020408C2
:100110001020408001020408102001020408102071
:1001200000000008000201000003040700000000B6
:1001300000000000E00DCF1011241FBECFEFD8E06B
:10014000DEBFCDBF24E0A8ECB3E001C01D92A83E05
:10015000B207E1F713E0A0E0B1E0EEE1FFE202C098
:1001600005900D92A83CB107D9F710E0CBE9D0E09B
:1001700004C02197FE010E94D512CA39D107C9F7E0
:100180000E944A0E0C9482170C940000833081F078
:1001900028F4813099F08230A9F008958730A9F0D1
:1001A0008830C9F08430B1F4809180008F7D03C025
:1001B000809180008F7780938000089584B58F7739
:1001C00084BD089584B58F7DFBCF8091B0008F777B
:1001D0008093B00008958091B0008F7DF9CFCF93C8
:1001E000DF93282F30E0F901E05EFE4F8491F901A2
:1001F000E45FFE4FD491F901E850FF4FC491CC2346
:10020000A1F081110E94C600EC2FF0E0EE0FFF1F5D
:10021000E251FF4FA591B491EC91ED2381E090E084
:1002200009F480E0DF91CF91089580E090E0FACF6B
:100230001F93CF93DF93282F30E0F901E05EFE4F4C
:100240008491F901E45FFE4FD491F901E850FF4F2A
:10025000C491CC23A9F0162F81110E94C600EC2F67
:10026000F0E0EE0FFF1FEC51FF4FA591B4918FB757
:10027000F894EC91111108C0D095DE23DC938FBF68
:10028000DF91CF911F910895DE2BF8CFCF93DF93AD
:1002900090E0FC01E45FFE4F249188509F4FFC01E9
:1002A00084918823D1F090E0880F991FFC01E652D9
:1002B000FF4FA591B491FC01EC51FF4FC591D49132
:1002C000623071F49FB7F8943C91822F809583231C
:1002D0008C93E8812E2B28839FBFDF91CF910895C7
:1002E0008FB7F894EC912E2B2C938FBFF6CFCF9332
:1002F000DF93EC01862F1B861A86198218821E8ACC
:100300001F8A188E198E28EC30E03F832E836C876D
:100310007D875F874E8761E00E94460161E08E85A0
:100320000E944601198A188A1B8A1A8A1D8A1C8A09
:1003300082E090E099878887DF91CF9108950895B2
:100340000895AF92BF92CF92DF92EF92FF920F93F8
:100350001F93CF93DF936C017B018B01040F151F5B
:10036000EB015E01AE18BF08C017D10759F06991C3
:10037000D601ED91FC910190F081E02DC601099527
:10038000892B79F7C501DF91CF911F910F91FF90D4
:10039000EF90DF90CF90BF90AF900895FC01538D08
:1003A000448D252F30E0842F90E0821B930B54174F
:1003B00010F0CF96089501970895FC01918D828DDC
:1003C000981761F0A28DAE0FBF2FB11D5D968C9175
:1003D000928D9F5F9F73928F90E008958FEF9FEFB4
:1003E0000895FC01918D828D981731F0828DE80F70
:1003F000F11D858D90E008958FEF9FEF0895FC012A
:10040000918D228D892F90E0805C9F4F821B9109F6
:100410008F739927089583ED93E00E94FF0121E0F7
:10042000892B09F420E0822F089580E090E0892B49
:1004300029F00E940B0281110C9400000895FC0128
:10044000A48DA80FB92FB11DA35ABF4F2C91848D35
:1004500090E001968F739927848FA689B7892C9392
:10046000A089B1898C91837080648C93938D848DE5
:10047000981306C00288F389E02D80818F7D8083E8
:100480000895EF92FF920F931F93CF93DF93EC01A8
:1004900081E0888F9B8D8C8D98131AC0E889F9892B
:1004A000808185FF15C09FB7F894EE89FF8960832E
:1004B000E889F98980818370806480839FBF81E0AF
:1004C00090E0DF91CF911F910F91FF90EF900895F1
:1004D000F62E0B8D10E00F5F1F4F0F731127E02ECC
:1004E0008C8D8E110CC00FB607FCFACFE889F98904
:1004F000808185FFF5CFCE010E941F02F1CFEB8DE9
:10050000EC0FFD2FF11DE35AFF4FF0829FB7F894D7
:100510000B8FEA89FB8980818062CFCFCF93DF93F5
:10052000EC01888D8823B9F0AA89BB89E889F9890B
:100530008C9185FD03C0808186FD0DC00FB607FC40
:10054000F7CF8C9185FFF2CF808185FFEDCFCE0173
:100550000E941F02E9CFDF91CF9108950F931F935F
:10056000CF93DF93EC018B0188859985029749F43D
:100570006130710509F436C04CF560E001151105D4
:1005800091F188859985049749F40130110509F4A2
:1005900051C09CF50115110509F43BC0888599856A
:1005A000059709F0C5C00A30110508F0C1C0F8016F
:1005B000E452FD4F0C94D5122E0338034603580322
:1005C000700372037803820390039603623071050F
:1005D00091F060E003301105A1F68C850E941801AE
:1005E00060E005C061E08C850E94180161E08E85A5
:1005F0000E941801C6CF61E0F0CF0230110501F171
:100600000330110559F661E08C850E94180160E005
:100610001CC061E08C850E94180160E08E850E94FC
:10062000180161E088890E94180160E08A890E94AF
:100630001801B4CF60E08C850E94180161E0EECF14
:1006400060E08C850E94180161E08E850E9418018F
:1006500060E088890E94180161E0E8CF60E08C8545
:100660000E94180161E08E850E94180161E009C0B6
:1006700060E08C850E94180161E08E850E9418015F
:1006800060E088890E94180160E00DC060E08C8500
:100690000E94180161E08E850E94180160E088893F
:1006A0000E94180161E08A890E94180161E011C06E
:1006B00060E08C850E94180161E08E850E9418011F
:1006C00060E088890E94180161E08A890E9418010F
:1006D00060E08C89DF91CF911F910F910C941801EC
:1006E00061E0E7CF61E08C850E94180160E0E5CF12
:1006F00061E08C850E94180160E08E850E941801DF
:1007000061E0DFCF61E08C850E94180160E08E859A
:100710000E94180161E088890E94180160E0D5CF2D
:1007200061E08C850E94180160E09DCF60E0F9CF08
:10073000DF91CF911F910F9108958F929F92AF9269
:10074000BF92CF92DF92EF92FF920F931F93CF93BE
:10075000DF93EC018B0177FF04C000271127061BF4
:10076000170B161617060CF06AC081E090E099830B
:10077000888354E0E52EF12C6AE0C62ED12C0115B9
:10078000110509F46EC03FB7F8948091CA039091A7
:10079000CB03A091CC03B091CD0326B5A89B05C097
:1007A0002F3F19F00196A11DB11D3FBFBA2FA92FF0
:1007B000982F8827820F911DA11DB11D42E0880F3F
:1007C000991FAA1FBB1F4A95D1F74E895F89688D73
:1007D000798D4C015D01841A950AA60AB70A4A81EF
:1007E0005B816C817D8184169506A606B70638F27A
:1007F0008E8B9F8BA88FB98F8A859B8528813981A5
:100800002130310511F501969B878A872E813F8122
:100810008217930711F41B861A86015011098A85E5
:100820009B8528853985B6012530310509F0B7014A
:100830000E948012BC01CE010E94AE02A0CF672BA5
:1008400009F497CF1982188294CF892B21F48E81D5
:100850009F819B878A878A859B8501979B878A874B
:10086000DCCFDF91CF911F910F91FF90EF90DF9040
:10087000CF90BF90AF909F908F900895982F803326
:100880006CF08A3324F08F3524F08B3724F481E028
:10089000089581341CF081E09B350CF080E00895D0
:1008A000FC018685811114C0A185B285838594855C
:1008B0002FEF3FEFA817B90730F4CD0101969287CB
:1008C00081872C9130E037FD20E0258781E0868705
:1008D000858508951F93CF93DF93EC01162F0E9417
:1008E0005004811306C01E8681E0DF91CF911F91D5
:1008F000089580E0FACF0F931F93CF93DF938C017D
:10090000EB018991882369F0C8010E945004882373
:1009100079F0FE013197908198130DC0F801168689
:10092000F0CF90E080E0DF91CF911F910F9108957B
:1009300082E090E0F8CF83E090E0F5CFCF93DF93B3
:10094000EC01CE010E9450048B304CF489305CF4F1
:10095000882359F081E0888790E080E00BC08D30DB
:1009600011F08032B9F71E86ECCF8885811105C061
:1009700081E090E0DF91CF91089582E090E0FACF9E
:10098000FC0124813581A9014F5F5F4F86819781EA
:100990004817590748F48281938155834483FC01A9
:1009A000E20FF31F608308950190F081E02D81E054
:1009B000808708959F92AF92BF92CF92DF92EF927D
:1009C000FF920F931F93CF93DF9300D000D01F921D
:1009D000CDB7DEB78C010E945004D82ED8011E96E8
:1009E0001C92F12CE12C60EFC62EC8010E9450042D
:1009F000F8011686D81609F4B4C0811113C082E03C
:100A000090E00F900F900F900F900F90DF91CF918B
:100A10001F910F91FF90EF90DF90CF90BF90AF901C
:100A20009F9008958C3509F09AC0C8010E94500427
:100A3000882329F3E8E1F1E0853709F084C0D80183
:100A40001E961C9254E0952EB12CA12CC8010E9438
:100A500050048823A1F2813434F48053803130F083
:100A600083E090E0CECF8F7D8753F8CF44E0AA0C8F
:100A7000BB1C4A95E1F7A82AF80116869A949110B2
:100A8000E5CFC501985D8115944020F47501F3E030
:100A9000FF22ABCFC5019C5D81159440A8F483E093
:100AA000B822B701762F6627770F770F6A297B293F
:100AB00090E080E00196603871058105910540F471
:100AC000C8010E94C00491CFB50190E080E0F3CF4F
:100AD0001982262F2F7320682A8326E09695879502
:100AE000779567952A95D1F76032710580F4606C2F
:100AF0006B835E01A4E0AA0EB11CD5016E915D016D
:100B0000662309F472CFC8010E94C004F6CF262FD5
:100B10002F7320682B8386E0769567958A95E1F799
:100B20006031710538F4606E6C835E01B5E0AB0E28
:100B3000B11CE3CF60686C83CD825E01E6E0AE0E4F
:100B4000B11CDBCF32969081992309F489CF8913A8
:100B5000F9CF8181882309F483CFF8011686682FA5
:100B6000AFCF0190F081E02D8085882319F084E0DB
:100B700090E047CF90E080E044CF4F925F926F9239
:100B80007F928F929F92AF92BF92CF92DF92EF921D
:100B9000FF920F931F93CF93DF93EC018B0188811A
:100BA0008B32C9F18D32C1F52196FF24F3948881EF
:100BB00090ED980F9A3018F08E3209F04DC160E038
:100BC00070E0CB01FE012191A0ED8A2E820E39E06A
:100BD000381520F16A3949E97407840749E1940717
:100BE00038F5AAE0B0E09B01AC010E94FB11912C0A
:100BF000B12CA12C24013501409450946094709440
:100C0000461657066806790698F0680D791D8A1D04
:100C10009B1DEF01D7CF2196F12CC9CF211108C020
:100C2000FF20F1F161307105810550E89507A0F0D2
:100C3000E12CEAE08E2E912CA12CB12C61157105CE
:100C4000F0E88F079105C0F1A50194010E9494126C
:100C5000CA01B901E394F2CFF801248120782A6017
:100C600024839B01AC0188279927DC01821B930B0D
:100C7000A40BB50B80839183A283B3838F2DDF9167
:100C8000CF911F910F91FF90EF90DF90CF90BF9089
:100C9000AF909F908F907F906F905F904F9008954E
:100CA000F801248120782860248360837183828303
:100CB0009383FF24F394E2CFFE01299130ED320FAC
:100CC0003A3010F4E394F8CF2E32F1F4EF0121968C
:100CD000FE012196208150EDD52ED20E29E02D1552
:100CE00098F06C3C3CEC73073CE08307910580F77F
:100CF000AAE0B0E09B01AC010E94FB116D0D711DDB
:100D0000811D911DEA94E4CF20812F7DD0E0C0E0C9
:100D1000253409F05DC021812D32D9F53296CC24DD
:100D2000C394DF01D0E0C0E02E2D0E2C000C330B5D
:100D30004AE0B42EFD01DD9040ED4D0D4A3008F043
:100D400042C0BC9EA001BD9E500D1124CD2DDD0CD6
:100D5000DD0BE097C40FD51FAE01420F531F473282
:100D6000510544F3F8018481CC20D1F040E050E0FB
:100D700060E070E8F11003C040E050E0BA01807814
:100D80008C60F80184834083518362837383FC2CDD
:100D900075CF2B3219F03196C12CC3CF3296FCCFD0
:100DA00040E050E060E87FEFF11004C040E050E028
:100DB00060E87FE780788C60F8018483408351830A
:100DC0006283738376CFCC2019F0D195C195D10978
:100DD0002081211141C0CE0DD11DE7FCDA950E9482
:100DE000DC101C161D0604F5E12CC0FF0CC024E02D
:100DF000E29EF0011124E859FF4F2591359145916C
:100E000054910E943D11D595C795E394209769F7B9
:100E1000F1109058F801248120782C60248360839D
:100E200071838283938345CFD195C195D109E12CFC
:100E3000209771F3C0FF0CC044E0E49EF001112440
:100E4000E058FF4F25913591459154910E943D11F5
:100E5000D595C795E394ECCFF12C10CFCF92DF92CC
:100E6000EF92FF92CF93DF9300D000D01F92CDB7C7
:100E7000DEB7FC0184818F778630B1F020F48430B6
:100E800000F580E012C08A3021F08C3039F18830D2
:100E9000C1F780819181A281B3818F3F9105A10526
:100EA000B10519F010F0EDCF80810F900F900F90E9
:100EB0000F900F90DF91CF91FF90EF90DF90CF9048
:100EC0000895808191811D82BE016F5F7F4F0E94D6
:100ED000BD05CE0101960E942E07E7CFC080D180CC
:100EE000E280F38020E030E0A901C701B6010E9452
:100EF0007B1287FDC6CF20E030E04FE753E4C70107
:100F0000B6010E94D71018160CF4BBCFC701B6016A
:100F10000E944C12862FC9CFCF93DF93DC01EB01E7
:100F2000EC81FD818A819B810896E817F90740F4DE
:100F300081E08887F0E0E0E0CF01DF91CF91089574
:100F40003897FD83EC833097B9F31296CD91DC91FD
:100F50001397209791F0CF018C1B9D0B23E0959563
:100F600087952A95E1F78D831396FC93EE9312975C
:100F70001582148217821682DFCF1196FC93EE93AE
:100F8000F3CFEF92FF920F931F93CF93DF937C01E8
:100F9000DC0112962D913C911397ED91FC91AB01E0
:100FA000420F531FEF01C60FD71FC217D307A0F47C
:100FB000888181110BC0E901CF014C175D0751F009
:100FC0000991DC011D91CD010117B9F381918111C6
:100FD000FDCFE8CF309751F4620F731FCB0101961C
:100FE000F70193838283DB011C92F901CF01DF912A
:100FF000CF911F910F91FF90EF900895FC01019008
:101000000020E9F73197AF01481B590BBC0183ED74
:1010100093E00C94A101CF93DF93D0E0C0E0009760
:1010200019F00E94FE07EC0189E291E00E94FE07A0
:101030008C0F9D1FDF91CF9108950F931F93CF9336
:10104000DF938C01D0E0C0E0F801EC0FFD1F64914C
:10105000662341F083ED93E00E944102892B11F059
:101060002196F2CF89E291E00E94FE078C0F9D1F2E
:10107000DF91CF911F910F910895CF93DF93611569
:101080007105A1F1DC018D919C91009789F1EC0132
:10109000EE81FF81DB010D900020E9F71197A61B7F
:1010A000B70B30E020E0309749F0EF0109900020C5
:1010B000E9F79E01215031092E1B3F0B2A173B07F0
:1010C00051F4DB01260F371F2A173B0789F05D918A
:1010D00041915417C9F3FC012581222339F0F8E02E
:1010E0002F0290011124820F931FCFCF90E080E058
:1010F000DF91CF9108959F92AF92BF92CF92DF92EE
:10110000EF92FF920F931F93CF93DF93EC017B013C
:10111000D42E0E949E048C01892B09F052C0CE016E
:101120000E945004863609F455C194F5873229F09F
:101130008B35D1F1823209F056C1E881F981828183
:1011400093819B838A838481958122813381821B51
:10115000930B9F838E831D821C82892B11F481E067
:101160008087CE010E94DA048C01892B51F5AC8076
:10117000BD80B501888199810E94C107F701248152
:1011800020782560248391838083B382A28219C052
:10119000843709F408C18B3709F453C08E3609F03F
:1011A00022C167E371E008C1F7018481807880641F
:1011B00084831182108213821282D1100FC005E045
:1011C00010E0C801DF91CF911F910F91FF90EF9038
:1011D000DF90CF90BF90AF909F9008951E86CE0174
:1011E0000E949E04009709F02DC16DE5CE010E947A
:1011F0006A048111E6CFDA946F857889C7010E946D
:101200008C07009709F46EC04D2DBC01CE010E94E1
:101210007B08009709F016C1CE010E949E0400973A
:1012200009F010C16DE5CE010E946A048111C9CF99
:101230006CE2CE010E946A048111DECF03E010E06F
:10124000C0CFF7018481807880628483118210820C
:1012500013821282DD2009F4B2CF1E86CE010E94D5
:101260009E04009709F0EEC06DE7CE010E946A046B
:101270008111A7CFBB24B394DA94E881F9818281EC
:1012800093819B838A838481958122813381821B10
:10129000930B9F838E831D821C82892B09F4B08659
:1012A000CE010E945004873201F18232F1F0CE016A
:1012B0000E945004182F0E943E04882309F4BECFD8
:1012C0001E86612FCE010E94C004CE010E945004F0
:1012D000182F0E943E048111F3CFE881F9818085A7
:1012E000882351F004E010E06CCFCE010E94DA04B4
:1012F0008C01892B09F065CFCE010E949E048C01E0
:10130000892B09F05ECF6AE3CE010E946A0488232C
:1013100009F494CFEA81FB818C819D81E80FF91F4C
:1013200010820C811D816A817B81C7010E943D086A
:10133000BC01892BA1F4B801888199810E94C10761
:101340008C016F857889C7010E948C07FC01892B6D
:1013500049F284818068848317830683BF014D2D01
:10136000CE010E947B088C01892B09F02ACFCE0187
:101370000E949E048C01892B09F023CF6DE7CE01DA
:101380000E946A0481111DCF6CE2CE010E946A04A2
:10139000882309F453CFCE010E949E048C01892B2F
:1013A00009F46BCF0ECFF701848180788660848347
:1013B00081E080836CE271E0CE01DF91CF911F91DB
:1013C0000F91FF90EF90DF90CF90BF90AF909F90E4
:1013D0000C947B04F701848180788660848310827A
:1013E00061E371E0E9CFCE010E9450045E01F1E1BA
:1013F000AF0EB11CD12C9A2CCB2C803374F08A33D5
:1014000074F49FE3D91699F01E86D394F501819365
:101410005F01CE010E945004F0CF8B3291F393ED27
:10142000980F923070F3982F9F7D953451F3CD0D26
:10143000D11D198AB701892D9C2D0E94BD058111EE
:10144000C0CEFCCE8C01BDCEFC01248125FF04C0A2
:10145000009711F00C943D0890E080E00895CF9340
:10146000DF93FC018081918109962281338100976D
:1014700009F443C0EB01B9010E94240AFC01892B45
:10148000E1F194819F7794509230B8F54281538175
:10149000DE010D900020E9F79D01215031092C1B40
:1014A0003D0B0190F081E02DBA012417350708F4B7
:1014B000B9016E0F7F1F6E177F0789F08191A99187
:1014C0008A17C9F3082E000C990B8A1B9109A7FDF6
:1014D00093951816190664F422E030E010C0421704
:1014E000530740F024173507B8F321E030E007C078
:1014F000892BD9F324E030E002C030E020E081E025
:101500002130310509F080E0DF91CF910895CF922D
:10151000DF92EF92FF920F931F93CF93DF93CDB79C
:10152000DEB7C753D1400FB6F894DEBF0FBECDBFB4
:101530009E01215F3F4F3A8329833C832B8327ED14
:1015400030E02C0F3D1F3E832D8338872F83198673
:101550001E86FC012081318184819581820F931F39
:101560008E010F5F1F4FC05DDE4F19830883C0538C
:10157000D14048E0FE01E05DFE4FDE01A85DBE4FB8
:1015800001900D924A95E1F748E0FE01E85DFE4FBB
:10159000DE01A952BF4F01900D924A95E1F7C15269
:1015A000DF4F1882CF5DD040C052DF4F3983288390
:1015B000C05ED040CE51DF4F99838883C25ED04059
:1015C000CB51DF4F1882C55ED040CA51DF4F19831F
:1015D0000883C65ED0404AE0BE01665F7F4FCE0101
:1015E00089529F4F0E947B08892B59F4CC51DF4FC1
:1015F0008881C45ED040882309F427C18E8583FF8B
:1016000024C18CE391E00E940B086CC1C952DF4FEA
:1016100019830883C75DD04035E5E32E31E0F32E12
:10162000C752DF4FF982E882C95DD04068E571E0BA
:10163000CE0189529F4F0E942F0AC952DF4F198352
:101640000883C75DD040C752DF4FF982E882C95D89
:10165000D0406DE571E0CE0189529F4F0E942F0A64
:10166000882309F43FC1C952DF4F19830883C75D3E
:10167000D04086E691E0C752DF4F99838883C95DE9
:10168000D0406CE271E0CE0189529F4F0E942F0A38
:10169000882319F089E691E0B6CF84E891E0B3CFD2
:1016A000C952DF4F19830883C75DD040C752DF4F4F
:1016B000F982E882C95DD0406DE571E0CE018952C2
:1016C0009F4F0E942F0A882319F08DEA90E008C1ED
:1016D000C952DF4F19830883C75DD040C752DF4F1F
:1016E000F982E882C95DD04060EB71E0CE01895299
:1016F0009F4F0E942F0A882309F4F4C088E990E0E4
:10170000EFC0C752DF4FF982E882C95DD04067EB76
:1017100071E0CE0189529F4F0E942F0A882319F051
:101720008AEB91E070CFC952DF4F19830883C75D00
:10173000D040C752DF4FF982E882C95DD0406EEBDE
:1017400071E0CE0189529F4F0E942F0A8823C9F170
:1017500065E571E0CE010A960E94240A009779F1AE
:101760000E942E07282F30E050E040E0C950DF4FA4
:101770001882C75FD04007ED10E00C0F1D1F005E00
:101780001F4F9AE0C92ED12CE12CF12CCA01B901CE
:10179000A70196010E949412605DF80162938F0187
:1017A000211531054105510589F7309719F0CF0111
:1017B0000E94FE0789E291E00E94FE07B1CF80E01F
:1017C000D1CFC952DF4F19830883C75DD040C752BC
:1017D000DF4FF982E882C95DD04061EC71E0CE0153
:1017E00089529F4F0E942F0A81119ACFC952DF4F11
:1017F00019830883C75DD040C752DF4FF982E88262
:10180000C95DD04064EC71E0CE0189529F4F0E94C7
:101810002F0A811185CF60EA71E0CE010A960E94FD
:10182000240AFC01892B31F084818F77843029F0E0
:10183000853019F010E000E002C00081118188ECD1
:1018400091E00E94FE07C801DECEC952DF4F198326
:101850000883C75DD04080EAE82E81E0F82EC752A9
:10186000DF4FF982E882C95DD04068E271E0CE01C5
:1018700089529F4F0E942F0A8111C8CEC952DF4F53
:1018800019830883C75DD040C752DF4FF982E882D1
:10189000C95DD04064EA71E0CE0189529F4F0E9439
:1018A0002F0AC952DF4F19830883C75DD0408823B0
:1018B00009F427CF25E5E22E21E0F22EC752DF4FB3
:1018C000F982E882C95DD04068EA71E0CE018952B0
:1018D0009F4F0E942F0A882309F4E2CE84EC90E007
:1018E0000E941D08C95CDE4F0FB6F894DEBF0FBE24
:1018F000CDBFDF91CF911F910F91FF90EF90DF90BF
:10190000CF900895FC0180819181009711F00C9493
:101910008B1308950F931F93CF93DF93EC0188816E
:101920009981009759F02A813B812617370730F0BB
:1019300081E0DF91CF911F910F9108958B016F5F2F
:101940007F4F0E941414009759F0998388831B835A
:101950000A832C813D81232B59F7FC011082E8CFAB
:1019600080E0E7CFEF92FF920F931F93CF93DF9327
:10197000EC017B018A01BA010E948A0C288139811D
:10198000811114C02115310519F0C9010E948B1372
:10199000198218821D821C821B821A82CE01DF915D
:1019A000CF911F910F91FF90EF9008951D830C83AD
:1019B000B701C9010E94DA14F1CF0F931F93CF939F
:1019C000DF93CDB7DEB7C054D1090FB6F894DEBFB0
:1019D0000FBECDBF8BE00E94EF009F938F9387EDEA
:1019E00091E09F938F938E010F5F1F4F1F930F9373
:1019F0000E94E114C8010E940B088AE00E94EF00D7
:101A00009F938F9381EF91E09F938F931F930F93F9
:101A10000E94E114C8010E940B0889E00E94EF00B7
:101A20009F938F938DE092E09F938F931F930F93DB
:101A30000E94E114C8010E940B0881E10E94EF009E
:101A40009F938F9387E292E09F938F931F930F93BF
:101A50000E94E114C8010E940B080FB6F894DEBF83
:101A60000FBECDBFC05CDF4F0FB6F894DEBF0FBE18
:101A7000CDBFDF91CF911F910F9108951F920F92CB
:101A80000FB60F9211242F933F938F939F93AF9391
:101A9000BF938091CF039091D003A091D103B091D7
:101AA000D2033091CE0323E0230F2D3758F5019652
:101AB000A11DB11D2093CE038093CF039093D0033B
:101AC000A093D103B093D2038091CA039091CB032A
:101AD000A091CC03B091CD030196A11DB11D8093BF
:101AE000CA039093CB03A093CC03B093CD03BF91D3
:101AF000AF919F918F913F912F910F900FBE0F90BB
:101B00001F90189526E8230F0296A11DB11DD2CF74
:101B10001F920F920FB60F9211242F933F934F9362
:101B20005F936F937F938F939F93AF93BF93EF9345
:101B3000FF9383ED93E00E941F02FF91EF91BF910D
:101B4000AF919F918F917F916F915F914F913F9155
:101B50002F910F900FBE0F901F9018951F920F920C
:101B60000FB60F9211242F938F939F93EF93FF93B0
:101B7000E091E303F091E4038081E091E903F091C7
:101B8000EA0382FD1BC090818091EC038F5F8F730D
:101B90002091ED03821741F0E091EC03F0E0ED526B
:101BA000FC4F958F8093EC03FF91EF919F918F9164
:101BB0002F910F900FBE0F901F9018958081F4CF3A
:101BC000E3EDF3E01382128288EE93E0A0E0B0E050
:101BD00084839583A683B7838AE091E09183808391
:101BE00085EC90E09587848784EC90E097878687E2
:101BF00080EC90E0918B808B81EC90E0938B828BDA
:101C000082EC90E0958B848B86EC90E0978B868BB2
:101C1000118E128E138E148EEEEDF4E0118210826E
:101C2000138212821582148250E040E068E271E073
:101C3000CF010E94B20C45E050E062E070E084EC1D
:101C400094E00E94770146E050E063E070E08AEAA9
:101C500094E00E94770147E050E064E070E080E9A2
:101C600094E00E9477014DE050E06CE070E086E780
:101C700094E00E947701E0E7F4E011821082138281
:101C800012821582148250E040E068E271E0CF01D8
:101C90000C94B20CCF93DF93CDB7DEB728970FB675
:101CA000F894DEBF0FBECDBF789484B5826084BD4A
:101CB00084B5816084BD85B5826085BD85B5816050
:101CC00085BD80916E00816080936E0010928100CE
:101CD0008091810082608093810080918100816089
:101CE000809381008091800081608093800080914A
:101CF000B10084608093B1008091B00081608093D6
:101D0000B00080917A00846080937A0080917A009C
:101D1000826080937A0080917A00816080937A005B
:101D200080917A00806880937A001092C100E091DF
:101D3000E303F091E40382E08083E091DF03F0911C
:101D4000E0031082E091E103F091E2038FEC8083E5
:101D50001092EB03E091E703F091E80386E08083C3
:101D6000E091E503F091E603808180618083E0915A
:101D7000E503F091E603808188608083E091E503CC
:101D8000F091E603808180688083E091E503F09123
:101D9000E60380818F7D808385E492E00E940B08BA
:101DA0008EE992E00E940B088FEE92E00E940B08F1
:101DB00089E193E00E940B0887E493E00E940B08FE
:101DC0008DE693E00E940B0885E492E00E940B08E8
:101DD00083ED93E00E94DD0197FFFACF62E08BE094
:101DE0000E94460162E08AE00E94460162E089E0CA
:101DF0000E94460162E081E10E94460188E291E092
:101E00000E940B080E94DD0C2091CA043091CB0483
:101E1000032E000C440B550BC12C97E8D92E93E9E7
:101E2000E92E93E0F92EC701B6010E94B61264EFC5
:101E3000862E99249394A12CB12CCA01B901A50135
:101E400094010E94B6122093C6043093C7044093B5
:101E5000C8045093C9042091B0043091B104032EFA
:101E6000000C440B550BC701B6010E94B612CA0103
:101E7000B901A50194010E94B6122093AC043093DD
:101E8000AD044093AE045093AF042091960430917A
:101E90009704032E000C440B550BC701B6010E949A
:101EA000B612CA01B901A50194010E94B61220938D
:101EB000920430939304409394045093950420919A
:101EC0007C0430917D04032E000C440B550BC7019C
:101ED000B6010E94B612CA01B9012CED35E040E00E
:101EE00050E00E94B6122093780430937904409316
:101EF0007A0450937B0489E893E00E940B088BE0FE
:101F00000E94EF00019739F068E37FEF84EC94E0E2
:101F10000E949D03F4CF0E94DD0C84E993E00E94AF
:101F20000B0889E00E94EF00019739F068E37FEF2A
:101F30008AEA94E00E949D03F4CF0E94DD0C8FE9B1
:101F400093E00E940B0881E10E94EF00019739F0B5
:101F500068E37FEF80E994E00E949D03F4CF0E9444
:101F6000DD0C8AEA93E00E940B088AE00E94EF00F1
:101F7000019739F068EC70E086E794E00E949D03D9
:101F8000F4CF0E94DD0C80E0C82E80E0D82E01E066
:101F90001A8219821C821B821E821D8250E040E040
:101FA00068E271E0CE0101960E94B20C83ED93E0ED
:101FB0000E94FF01181619060CF03FC083ED93E054
:101FC0000E94DD01182F682F83ED93E00E944102EB
:101FD0001F831886E0907404F09075048FEFE81A60
:101FE000F80AB70180E794E00E948A0C882399F0F0
:101FF0002091700430917104809174049091750463
:10200000BE01695F7F4F820F931F0E94DA14F09226
:102010007504E09274041B3741F01D3739F6809146
:10202000C90381508093C903C1CF8091C9038F5FD9
:102030008093C9030093C803B9CF8091C803882354
:1020400001F18091C90381111CC0609170047091ED
:1020500071046115710509F47CC0409174045091BC
:102060007504CE0101960E94B20C50E040E068E297
:1020700071E080E794E00E94B20C1092C9031092C4
:10208000C8038091DE049091DF04009709F470C0CA
:1020900069817A816115710509F468C04091E00495
:1020A0005091E1042D813E814217530708F45EC030
:1020B0000E94DA148D819E819093E3048093E20460
:1020C0001E821D82CE0101960E94820C8091E20444
:1020D0009091E304892B89F187EB93E00E94FE073E
:1020E0004091E2045091E3046091DE047091DF04BA
:1020F00083ED93E00E94A10189E291E00E94FE0736
:102100001A8219821C821B821E821D826091DE044B
:102110007091DF046115710541F04091E204509126
:10212000E304CE0101960E94B20CCE0101960E94FA
:10213000870ACE0101960E94820CC114D10409F4D1
:1021400027CF0E940B02882309F422CF0E940000AF
:102150001FCF89819A81009711F00E948B131A82F8
:1021600019821E821D821C821B827FCF0E948B13CC
:1021700089819A819093DF048093DE048B819C8116
:102180009093E1048093E0048D819E819093E30419
:102190008093E2041A8219821C821B8291CF80E70D
:1021A00094E00E94820C8EED94E00C94820C0E94CC
:1021B000191108F481E00895E89409C097FB3EF4F2
:1021C00090958095709561957F4F8F4F9F4F992384
:1021D000A9F0F92F96E9BB279395F6958795779502
:1021E0006795B795F111F8CFFAF4BB0F11F460FFC2
:1021F0001BC06F5F7F4F8F4F9F4F16C0882311F01A
:1022000096E911C0772321F09EE8872F762F05C02D
:10221000662371F096E8862F70E060E02AF09A95C8
:10222000660F771F881FDAF7880F9695879597F9BD
:102230000895990F0008550FAA0BE0E8FEEF161657
:102240001706E807F907C0F012161306E407F507AA
:1022500098F0621B730B840B950B39F40A2661F01E
:10226000232B242B252B21F408950A2609F4A140C1
:10227000A6958FEF811D811D08950E9450110C9429
:10228000C1110E94B31138F00E94BA1120F09523B9
:1022900011F00C94AA110C94B01111240C94F511A6
:1022A0000E94D21170F3959FC1F3950F50E0551F16
:1022B000629FF001729FBB27F00DB11D639FAA279B
:1022C000F00DB11DAA1F649F6627B00DA11D661FEA
:1022D000829F2227B00DA11D621F739FB00DA11D0B
:1022E000621F839FA00D611D221F749F3327A00DC5
:1022F000611D231F849F600D211D822F762F6A2F61
:1023000011249F5750409AF0F1F088234AF0EE0FC5
:10231000FF1FBB1F661F771F881F91505040A9F7F2
:102320009E3F510580F00C94AA110C94F5115F3F6B
:10233000E4F3983ED4F3869577956795B795F7952E
:10234000E7959F5FC1F7FE2B880F911D96958795A6
:1023500097F9089597F99F6780E870E060E0089525
:102360009FEF80EC089500240A94161617061806AD
:102370000906089500240A94121613061406050689
:102380000895092E0394000C11F4882352F0BB0F1A
:1023900040F4BF2B11F460FF04C06F5F7F4F8F4F7D
:1023A0009F4F089557FD9058440F551F59F05F3FB8
:1023B00071F04795880F97FB991F61F09F3F79F067
:1023C00087950895121613061406551FF2CF4695E9
:1023D000F1DF08C0161617061806991FF1CF86956B
:1023E0007105610508940895E894BB27662777274F
:1023F000CB0197F908950E943D12A59F900DB49FBF
:10240000900DA49F800D911D112408952F923F924D
:102410004F925F926F927F928F929F92AF92BF92F4
:10242000CF92DF92EF92FF920F931F93CF93DF93A0
:10243000CDB7DEB7CA1BDB0B0FB6F894DEBF0FBEFD
:10244000CDBF09942A88398848885F846E847D844A
:102450008C849B84AA84B984C884DF80EE80FD804C
:102460000C811B81AA81B981CE0FD11D0FB6F894C2
:10247000DEBF0FBECDBFED010895A29FB001B39F97
:10248000C001A39F700D811D1124911DB29F700D7D
:10249000811D1124911D08950E94DA1188F09F5723
:1024A00098F0B92F9927B751B0F0E1F0660F771F78
:1024B000881F991F1AF0BA95C9F714C0B13091F06E
:1024C0000E94F411B1E008950C94F411672F782F55
:1024D0008827B85F39F0B93FCCF386957795679533
:1024E000B395D9F73EF490958095709561957F4F9F
:1024F0008F4F9F4F08950E94191108F48FEF089590
:1025000097FB072E16F4009407D077FD09D00E94A0
:10251000DB1207FC05D03EF4909581959F4F0895FE
:10252000709561957F4F0895A1E21A2EAA1BBB1BDF
:10253000FD010DC0AA1FBB1FEE1FFF1FA217B3078F
:10254000E407F50720F0A21BB30BE40BF50B661FA5
:10255000771F881F991F1A9469F760957095809569
:1025600090959B01AC01BD01CF010895052E97FB0D
:102570001EF400940E94CD1257FD07D00E949412C1
:1025800007FC03D04EF40C94CD1250954095309535
:1025900021953F4F4F4F5F4F0895909580957095CF
:1025A00061957F4F8F4F9F4F0895EE0FFF1F05904E
:1025B000F491E02D0994AA1BBB1B51E107C0AA1F8F
:1025C000BB1FA617B70710F0A61BB70B881F991FD4
:1025D0005A95A9F780959095BC01CD0108950F9368
:1025E0001F93CF93DF938230910510F482E090E047
:1025F000E091E604F091E70430E020E0B0E0A0E0F4
:10260000309799F42115310509F44AC0281B390B7C
:1026100024303105D8F58A819B816115710589F1D6
:10262000FB0193838283FE0111C0408151810281AD
:10263000138148175907E0F04817590799F4109784
:1026400061F012960C93129713961C933296CF0159
:10265000DF91CF911F910F9108950093E60410939D
:10266000E704F4CF2115310551F04217530738F034
:10267000A901DB019A01BD01DF01F801C1CFEF0122
:10268000F9CF9093E7048093E604CDCFFE01E20FEB
:10269000F31F819391932250310939832883D7CF37
:1026A0002091E4043091E504232B41F420910201B0
:1026B000309103013093E5042093E404209100015C
:1026C000309101012115310541F42DB73EB74091FC
:1026D000040150910501241B350BE091E404F091B5
:1026E000E504E217F307A0F42E1B3F0B2817390768
:1026F00078F0AC014E5F5F4F2417350748F04E0F5E
:102700005F1F5093E5044093E404819391939FCF1E
:10271000F0E0E0E09CCFCF93DF930097E9F0FC017D
:10272000329713821282A091E604B091E704ED0182
:1027300030E020E01097A1F420813181820F931FB7
:102740002091E4043091E5042817390709F061C0AD
:10275000F093E504E093E404DF91CF910895EA015A
:10276000CE17DF07E8F54A815B819E0141155105CF
:10277000B1F7E901FB83EA8349915991C40FD51F51
:10278000EC17FD0761F4808191810296840F951FFB
:10279000E90199838883828193819B838A83F0E016
:1027A000E0E012968D919C9113970097B9F52D91C9
:1027B0003C911197CD010296820F931F2091E40462
:1027C0003091E5042817390739F6309751F5109202
:1027D000E7041092E604B093E504A093E404BCCFB0
:1027E000D383C28340815181840F951FC817D907B5
:1027F00061F44E5F5F4F88819981480F591F518363
:1028000040838A819B81938382832115310509F05E
:10281000B0CFF093E704E093E6049ECFFD01DC0126
:10282000C0CF13821282D7CFB0E0A0E0EAE1F4E19A
:102830000C9408128C01009751F4CB010E94EF1206
:102840008C01C801CDB7DEB7E0E10C942412FC0185
:10285000E60FF71F9C0122503109E217F30708F435
:102860009DC0D901CD91DC911197C617D70798F07B
:10287000C530D10530F3CE0104978617970708F3CA
:10288000C61BD70B2297C193D1936D937C93CF0135
:102890000E948B13D6CF5B01AC1ABD0A4C018C0E83
:1028A0009D1EA091E604B091E704512C412CF12C1F
:1028B000E12C109731F58091E4049091E50488159E
:1028C000990509F05CC04616570608F058C080917B
:1028D000000190910101009741F48DB79EB740919E
:1028E000040150910501841B950BE817F90708F0C6
:1028F00055C0F093E504E093E404F901718360832B
:10290000A0CF8D919C91119712966C90129713966F
:102910007C901397A815B90559F56C0142E0C40ED7
:10292000D11CCA14DB0420F1AC014A195B09DA019D
:102930001296159780F06282738251834083D90189
:102940006D937C93E114F10471F0D7011396FC931D
:10295000EE93129776CF22968C0F9D1FF9019183EB
:102960008083F301EFCFF093E704E093E60469CFAF
:102970004816590608F42C017D01D3019ACFCB01EA
:102980000E94EF127C01009749F0AE01B8010E944D
:10299000D114C8010E948B13870153CF10E000E0CF
:1029A00050CFFB01DC0102C001900D92415050401C
:1029B000D8F70895FB01DC0101900D920020E1F7AA
:1029C0000895AEE0B0E0E7EEF4E10C9414120D8946
:1029D0001E8986E08C831A8309838FEF9FE79E838D
:1029E0008D83AE01475E5F4F6F89788DCE01019672
:1029F0000E9404152F813885020F131FF8011082E1
:102A00002E96E4E00C943012ABE0B0E0EAE0F5E1A1
:102A10000C9406127C013B018A01FC01178216828C
:102A2000838181FFC8C1CE0101965C01F7019381CA
:102A3000F30193FD859193FF81913F01882309F470
:102A400053C1853239F493FD859193FF81913F0104
:102A5000853229F4B70190E00E94F416E7CF912C5B
:102A6000212C312CFFE1F31538F08B3211F190F469
:102A7000803209F1833229F137FC3CC020ED280F68
:102A80002A3050F536FE20C08AE0989E200D112491
:102A9000922E06C08D3291F0803371F7689430F831
:102AA000F30193FD859193FF81913F018111DACF6D
:102AB00021C0689431F8689432F8F2CF689433F802
:102AC000EFCF689434F8ECCFEAE02E9E200D11246D
:102AD000222E689435F8E4CF8E3229F436FC04C1F6
:102AE000689436F8DDCF8C3619F4689437F8D8CF6F
:102AF0008836B1F2982F9F7D95549330E0F083365D
:102B0000A1F18337C1F1833509F063C02801F2E0F8
:102B10004F0E511CF801C080D180692D70E036FC49
:102B200002C06FEF7FEFC6010E94DE164C01689471
:102B300037F882010AC00C5F1F4FFFE3F983882436
:102B40008394912C6501E89437F833FE2DC0522C04
:102B50008114910471F5552009F468CFB70180E222
:102B600090E00E94F4165A94F6CFF8018081898390
:102B70000E5F1F4FE4CF2801F2E04F0E511CF80109
:102B8000C080D180692D70E036FC02C06FEF7FEF0E
:102B9000C6010E94E9164C018201D5CFB70180E23F
:102BA00090E00E94F4162A942814190409F0B0F752
:102BB000CECFF60137FC859137FE81916F01B701C9
:102BC00090E00E94F41651105A94F1E08F1A910887
:102BD000BFCF843619F0893609F077C0F80137FE87
:102BE0006BC060817181828193810C5F1F4FF32DD7
:102BF000FF763F2E97FF09C090958095709561955F
:102C00007F4F8F4F9F4F689437F82AE030E0A5013F
:102C10000E942417C82ECA188C2C432C36FE0CC0D8
:102C2000E89440F8C91440F434FE05C032FC03C0F7
:102C3000F32DFE7E4F2E892C44FE95C0FE01EC0D37
:102C4000F11D8081803309F087C0242D297E422E1A
:102C5000842D8870582E43FC95C040FE8FC09C2C5C
:102C6000821418F42C0C922C981844FE91C0B701D1
:102C700080E390E00E94F41642FE09C088E790E0ED
:102C800041FE02C088E590E0B7010E94F416C91425
:102C900008F48AC0CA94D12C9FEFC91AD90ACA0C69
:102CA000DB1CF60182916F01B70190E00E94F416DF
:102CB000AC14BD04B1F74FCF60817181072E000CB9
:102CC000880B990B0E5F1F4F92CFD32CE894D4F84A
:102CD0002AE030E0853739F1232D297FD22E8F3637
:102CE00001F148F48835A9F0F701868197812B9688
:102CF000E2E10C942212803749F08837A9F7D4FE1C
:102D000002C06894D2F820E130E00DC06894D4F895
:102D1000F6CF34FE03C0822F8660D82E20E132E049
:102D200002C028E030E0F801D7FE0FC06081718159
:102D3000828193810C5F1F4FA5010E942417C82E2A
:102D4000CA183D2CE89437F867CF6081718190E014
:102D500080E00E5F1F4FF0CF42FC02C0839478CF1B
:102D60008394839475CF842D867809F471CFF6CF40
:102D7000B70180E290E00E94F41683948214C0F3BD
:102D8000512C73CF522C5818821408F46ECFF8CF00
:102D9000842D867809F47BCF8BE241FE80E247FCEC
:102DA0008DE2B70190E071CFB70180E390E00E941F
:102DB000F4169A946CCF8FEF9FEF99CFFC0105909A
:102DC000615070400110D8F7809590958E0F9F1F2D
:102DD0000895FC016150704001900110D8F7809572
:102DE00090958E0F9F1F08950F931F93CF93DF939E
:102DF000182F092FEB018B8181FD09C01FEF0FEF09
:102E0000812F902FDF91CF911F910F91089582FF15
:102E100014C02E813F818C819D81281739073CF495
:102E2000E881F981CF0101969983888310838E818F
:102E30009F8101969F838E83E3CFE885F985812F5B
:102E40000995892BA1F3DACFFA01AA27283051F18D
:102E5000203181F1E8946F936E7F6E5F7F4F8F4FCB
:102E60009F4FAF4FB1E03ED0B4E03CD0670F781F2A
:102E7000891F9A1FA11D680F791F8A1F911DA11D0F
:102E80006A0F711D811D911DA11D20D009F4689448
:102E90003F912AE0269F11243019305D3193DEF6F0
:102EA000CF010895462F4770405D4193B3E00FD0A6
:102EB000C9F7F6CF462F4F70405D4A3318F0495D91
:102EC00031FD4052419302D0A9F7EACFB4E0A69574
:102ED0009795879577956795BA95C9F70097610596
:102EE000710508959B01AC010A2E069457954795EC
:102EF00037952795BA95C9F7620F731F841F951FE1
:102F0000A01D089510E0CBE9D0E004C0FE010E94AE
:102F1000D5122196CC39D107C9F7F894FFCF00001C
:102F2000E8048000000000004102A101CE018E02F1
:102F3000FF01DD01F1012F2F22225C5C6208660C8B
:102F40006E0A720D7409000D0A00747275650066D0
:102F5000616C7365006E756C6C00244572726F72E3
:102F60003A204A736F6E20646573657269616C699B
:102F70007A650064310074696D6500756C74726106
:102F8000736F6E00643200556C747261736F6E699A
:102F9000635F656E61626C6564203D207472756567
:102FA0003B00556C747261736F6E69635F656E612F
:102FB000626C6564203D2066616C73653B00636DE7
:102FC000640067657400626174746572790073747B
:102FD0006174757300733100246F6B007332006D80
:102FE00031006C65640024556E6B6E6F776E2063E4
:102FF0006D643A20007B226D7367223A226C696D02
:10300000697420736F636C653A202564227D007BB0
:10301000226D7367223A226C696D6974206861754C
:10302000746575723A202564227D007B226D73677A
:10303000223A226C696D697420636F7564653A2069
:103040002564227D007B226D7367223A226C696DB4
:10305000697420726F742070696E63653A2025640C
:10306000227D007B226D736722203A20223D3D3D68
:103070003D3D3D3D3D3D3D3D3D3D3D3D3D3D3D3D80
:103080003D3D3D3D3D3D3D3D3D3D3D3D3D3D3D3D70
:103090003D3D3D3D3D3D3D3D3D3D3D3D3D3D3D3D60
:1030A0003D3D3D3D3D3D3D3D3D3D3D3D3D3D3D3D50
:1030B0003D3D3D3D3D3D3D3D3D227D007B226D73CF
:1030C0006722203A202250726F6772616D6D652011
:1030D000646520636F6E74726F6C65206475204246
:1030E00072617320526F626F742073656C6F6E2013
:1030F000756E6520636F6D6D616E646520726563CA
:10310000756520656E2077696669227D007B226D7A
:10311000736722203A20224461746520646520632D
:1031200072656174696F6E203A2032352F30332F0B
:1031300032303233227D007B226D736722203A20A9
:103140002244617465206465206D6F6469666963FB
:103150006174696F6E203A2031332F30352F323051
:103160003233227D007B226D736722203A20224D6C
:103170006F64696669636174696F6E206566666510
:103180006374756565203A20227D007B226D73672C
:1031900022203A2022417574657572203A204772C8
:1031A0006F757065227D00696E697420736F636C42
:1031B0006500696E697420636F75646500696E6986
:1031C000742070696E636500696E6974206861754A
:1031D0007465757200746F2062652070726F63652C
:0631E000737365643A0000
:107E0000112484B714BE81FFF0D085E080938100F7
:107E100082E08093C00088E18093C10086E0809377
:107E2000C20080E18093C4008EE0C9D0259A86E02C
:107E300020E33CEF91E0309385002093840096BBD3
:107E4000B09BFECF1D9AA8958150A9F7CC24DD24C4
:107E500088248394B5E0AB2EA1E19A2EF3E0BF2EE7
:107E6000A2D0813461F49FD0082FAFD0023811F036
:107E7000013811F484E001C083E08DD089C08234E0
:107E800011F484E103C0853419F485E0A6D080C0E4
:107E9000853579F488D0E82EFF2485D0082F10E0AE
:107EA000102F00270E291F29000F111F8ED06801E7
:107EB0006FC0863521F484E090D080E0DECF843638
:107EC00009F040C070D06FD0082F6DD080E0C81688
:107ED00080E7D80618F4F601B7BEE895C0E0D1E017
:107EE00062D089930C17E1F7F0E0CF16F0E7DF06D8
:107EF00018F0F601B7BEE89568D007B600FCFDCFD4
:107F0000A601A0E0B1E02C9130E011968C91119780
:107F100090E0982F8827822B932B1296FA010C0160
:107F200087BEE89511244E5F5F4FF1E0A038BF0790
:107F300051F7F601A7BEE89507B600FCFDCF97BE46
:107F4000E89526C08437B1F42ED02DD0F82E2BD052
:107F50003CD0F601EF2C8F010F5F1F4F84911BD097
:107F6000EA94F801C1F70894C11CD11CFA94CF0C13
:107F7000D11C0EC0853739F428D08EE10CD085E9AC
:107F80000AD08FE07ACF813511F488E018D01DD067
:107F900080E101D065CF982F8091C00085FFFCCF94
:107FA0009093C60008958091C00087FFFCCF809118
:107FB000C00084FD01C0A8958091C6000895E0E648
:107FC000F0E098E1908380830895EDDF803219F02E
:107FD00088E0F5DFFFCF84E1DECF1F93182FE3DFCA
:107FE0001150E9F7F2DF1F91089580E0E8DFEE27F6
:047FF000FF270994CA
:027FFE00040479
:00000001FF
